:020000040800F2
:10600000B8990008F1730008A175000803000000AA
:1060100070B540F2A004C2F2000406462568AB6BDE
:106020001BB100221E615A6170BD182000F05EF99C
:1060300023684AF6CD3141F23422A86343F20E3090
:106040009B6B18804EF26D6059804DF6EC619A8022
:106050000522D8800B20198100215A8100229881C5
:106060000120C3E904011E615A6170BD70B540F2A0
:10607000A004C2F200042568AE6BDEB130694FF2B5
:106080002D44756947F62D71C5F65104C4F6954146
:106090000122002304FB00F401FB0544A0FB0101E5
:1060A0001218214443EB0103C6E9042323F0004105
:1060B000084670BD182000F019F9246812A3D3E92E
:1060C00000234FF22D41C5F65101A86343F20E3073
:1060D000A66B41F234254AF6CD3430804EF26D6025
:1060E00074804DF6EC64B5800525F0800B2034817A
:1060F000012475810025B0810846C6E90445C6E93A
:10610000042370BDAFF300802E7F954C2DF45158C1
:1061100080EA010212F0030F3AD110F0030220F0DE
:10612000030021F0030150F804CB08BF51F8043BF1
:106130000DD082F003024FEAC2026FF07F4323FAD0
:1061400002F251F8043B4CEA020C43EA020300BF9E
:10615000ACF101329C4501BF22EA0C0212F0803FF3
:1061600050F804CB51F8043BF2D04FEA0C604FEAF0
:106170001C2C012828BFB0EB036F08BF1B0AF4D00A
:1061800003F0FF034FEA1060A0EB0300704700BF6D
:1061900010F0030F0AD010F8012B11F8013B012A6F
:1061A00028BF9A42F4D0A2EB030070474DF8045D7B
:1061B0004DF8044D4FF0010242EA022242EA024247
:1061C00001F0030C21F0030150F8044B51F8045B7B
:1061D000BCF1020F26D04BD824F07F4CBCEB152F1E
:1061E000A4EB020323EA04030DD113EAC21308BF90
:1061F00051F8045B0AD18CEA040CBCEB056F0CD19E
:1062000050F8044BE8E74FEA15255CE033F07F4394
:1062100052D10D784FEA146C55E04FEA146C05F03A
:10622000FF0550E04FEA044CA4EB02034FEA1C4C7C
:1062300023EA0403BCEB154F17D113EAC21308BFBE
:1062400051F8045B07D18CEA040CBCEB054F08D174
:1062500050F8044BE6E71B042ED10D884FEA144C8E
:1062600031E04FEA05454FEA144C4FEA15452AE064
:1062700004F0FF0CBCEB156FA4EB020323EA04034C
:106280000DD113EAC21308BF51F8045B0AD18CEA9E
:10629000040CBCEB052F0AD150F8044BE8E74FEA99
:1062A000156510E014F0FF0F06D051F8045B4FEABB
:1062B000142C25F07F4506E04FF000005DF8044BFC
:1062C0005DF8045B70470CF0FF0205F0FF00012849
:1062D00028BF904204BF4FEA1C2C2D0AF3D0A2EB3A
:1062E00000005DF8044B5DF8045B704740F2A003CA
:1062F0000146C2F20003186800F008B840F2A0039B
:106300000146C2F20003186800F02ABB2DE9F04FE5
:1063100001F10B04162C83B0064631D924F0070492
:10632000E30F8C422CBF194643F00101002930D104
:10633000304600F0A9FAB4F5FC7F2FD24FEAD40C16
:1063400040F29415C2F2000505EBCC022F46D3684B
:10635000934200F02D825C6803F10808DA68304649
:1063600024F0030499681B195C68CA6044F00104B6
:1063700091605C6000F08AFA404603B0BDE8F08F9F
:10638000002310248C422CBF194643F00101002940
:10639000CED00C234FF000083360EDE75FEA542CB9
:1063A00004BF4FEAD40C4FEACC0040F0868040F2A4
:1063B0009415C2F2000528182F46C368984206D1EA
:1063C0000DE0002980F27981DB68984207D05A6895
:1063D00022F00302111B0F29F3DD0CF1FF3C0CF13D
:1063E000010CBD4A93689A4208BF786824D0586867
:1063F00020F00300011B0F2900F3C0810029D260A7
:10640000926080F29480B0F5007F80F07781C008C0
:106410004FF0010ED7F8048007EBC00180100EFA90
:1064200000F0D960D1F808E040EA08007860C3F8CD
:1064300008E0CEF80C308B604FF0010E4FEAAC0351
:106440000EFA03FE86457DD810EA0E0F08D12CF017
:10645000030C4FEA4E0E0CF1040C10EA0E0FF8D0AC
:1064600007EBCC0AE146D046D8F80C00804507D1AE
:1064700096E1002B80F2A681C068804500F09081F3
:10648000416821F003010B1B0F2BF2DD8046C5682C
:10649000011944F0010E58F8087F43F00104C0F8D8
:1064A00004E030464C60FD60AF60D1609160CA602E
:1064B0008A60CB5000F0EAF95EE7BCF1040F9EBFA2
:1064C0004FEA941C0CF1380C4FEACC007FF66FAF0A
:1064D000BCF1140F9CBF0CF15B0C4FEACC007FF6B3
:1064E00066AFBCF1540F9EBF4FEA143C0CF16E0C2A
:1064F0004FEACC007FF65BAFBCF5AA7F9EBF4FEAA8
:10650000D43C0CF1770C4FEACC007FF650AF40F250
:1065100054539C4595BF4FEA944C4FF47C700CF15A
:106520007C0C4FF07E0C98BF4FEACC003FE71A1866
:1065300003F108083046536843F00103536000F04C
:10654000A5F919E7D7F80880D8F8043023F0030933
:106550004C45C4EB090294BF002301230F2AD8BF86
:1065600043F00103002B00F0B98040F2F85AD5F84F
:106570000834C2F2000A3046B3F1FF3FDAF80020D7
:1065800002F1100BA3441FBF0BF57E6B0BF11F0B29
:106590002BF47E6B2BF01F0B594600F079F9B0F10C
:1065A000FF3F034600F0188108EB0901814200F229
:1065B0001081DAF8042081425A44CAF8042000F01D
:1065C0003E81D5F808E440F29415C2F20005BEF110
:1065D000FF3F17BF8218C5F80804C1EB0201CAF8D3
:1065E000041010F0070517BFC5F108054FF48055DA
:1065F000431905F5805503EB0B0230460193120554
:10660000120DAD1A294600F043F9019BB0F1FF3F8E
:1066100000F02C81C11A491941F00101DAF8042077
:10662000B84540F2F85BBB602A44C2F2000B5960E7
:10663000CAF8042017D0B9F10F0F40F2E180A9F198
:106640000C03D8F8045023F00703052008EB0301DE
:106650000F2B05F0010543EA0505C8F80450486012
:10666000886000F2FB80DAF82C1040F2F853C2F296
:1066700000038A42DAF8301088BFDA6240F2F85339
:106680008A42C2F2000340F2A780D7F808801A635A
:10669000D8F8043023F003039C42C4EB030294BFF8
:1066A000002301230F2AD8BF43F00103B3B13046C2
:1066B0004FF0000800F0EAF85EE69A18D9689C6886
:1066C00003F108085568304645F00103E1608C602D
:1066D000536000F0DBF84FE69C01002008EB040358
:1066E00042F0010244F001043046C8F8044008F1C9
:1066F00008085A60BB6000F0C9F83DE6410A042969
:106700009CBF4FEA901E0EF1380E1DD9142998BF78
:1067100001F15B0E18D954299CBF4FEA103E0EF1CF
:106720006E0E11D9B1F5AA7F9CBF4FEAD03E0EF193
:10673000770E09D940F2545E714596BF4FEA904EEC
:106740004FF07E0E0EF17C0E07EBCE08D8F8081045
:10675000414503D147E08968884505D0D1F804E078
:106760002EF0030E7045F6D3D1F80CE0C3F80CE020
:1067700099607868CB60CEF808305DE61D1941F06D
:106780000107D56044F00104956030465C6003F178
:106790000808EA60AA606F60695000F077F8EBE5DE
:1067A00009F1010919F0030F2FD008F108085BE681
:1067B00003F108025B699A4208BF0CF1020C3FF436
:1067C00010AEC8E580464318C268304658F8081F26
:1067D000CAE5B8453FF4EDAED7F80880D8F80430E4
:1067E00023F0030358E74FF00109D7F804804FEA7C
:1067F000AE008E4609FA00F048EA00007860B5E77E
:10680000984601225A60002346E751461CF0030FC8
:106810000B460CF1FF3C2CD053F808199942F5D0E7
:106820007B684FEA4E0E9E453FF68CAEBEF1000FE0
:106830003FF488AE1EEA030F20D0CC4610E64FEAA4
:10684000015E4FEA1E5EBEF1000F7FF4BAAEBB6878
:106850000BEB090141F00101596004E7304608F1F2
:10686000080100F07DF8DBF80420FCE6012100259A
:10687000D4E67B6823EA0E037B60D1E74FEA4E0E35
:1068800009F10409D6E700BF704700BF704700BF99
:1068900038B540F24C64C2F20004054608460023B5
:1068A000236003F071F8B0F1FF3F00D038BD2368DA
:1068B000002BFBD02B6038BDF8B540F29414C2F227
:1068C00000040F460546FFF7DFFFA3685E6826F069
:1068D000030606F57E630F33DF1B3F0B013F3F03CB
:1068E000B7F5805F07DB00212846FFF7D1FFA368DB
:1068F0009B19984204D02846FFF7C8FF0020F8BD36
:1069000079422846FFF7C4FFB0F1FF3F10D040F2B4
:10691000FC53A168C2F20003F61B284646F00106AC
:106920001A684E60D71B1F60FFF7B0FF0120F8BD4B
:1069300000212846FFF7ACFFA368C21A0F2ADADD50
:1069400040F29C5440F2FC51C2F20004C2F2000139
:1069500042F001025A602368C01A0860CBE700BF0A
:106960002DE9F0410D460446002958D0FFF78CFF71
:10697000A5F1080240F294105668C2F2000026F019
:106980000103D0F808C0D1188C454F6827F00307E1
:1069900065D016F001064F6031D00026CD196D6824
:1069A00015F0010F06D1DB19002E4BD08D68C96898
:1069B000E9608D6043F00101D3505160D6B9B3F561
:1069C000007F2ED3590A04296BD89E093836F5006A
:1069D0004519A968A94203D169E089688D4204D0AC
:1069E000486820F003008342F7D3CB68D3609160FE
:1069F000CA609A602046BDE8F041FFF747BF55F8EE
:106A0000085C00F1080C521B5B199568654546D07F
:106A1000D2F80CC0C5F80CC0CCF80850BEE7BDE8F1
:106A2000F081DB080125466800EBC3019B1015FAD5
:106A300003F3D1608D6846EA030343609560EA6022
:106A40008A60D7E78D682B4FBD42B0D1EA6043F032
:106A50000101AA60D56095605160D350CAE716F075
:106A6000010F3B4407D155F8081C521A5B18956872
:106A7000D168E9608D6040F2A05143F00105C2F297
:106A80000001556082600A689342B3D340F2F85324
:106A90002046C2F200031968FFF70EFFAAE701269D
:106AA0007CE714290CD801F15B06F50090E701257D
:106AB0004768B6100B46B54047EA0505456095E7BF
:106AC000542903D81E0B6E36F50081E7B1F5AA7F75
:106AD00003D8DE0B7736F5007AE740F25455A94229
:106AE00003D89E0C7C36F50072E74FF47C757E2649
:106AF0006EE700BF9C01002070B50C460968054692
:106B000009B1FFF7F9FF28462146BDE87040FFF7BD
:106B100027BF00BF40F2A003C2F2000370B50546D4
:106B20001B6898424AD0426A02B3D368CBB10021B5
:106B30000E4653F8211009B908E021460C68284692
:106B4000FFF70EFF002CF8D16A6AD3680136202EB9
:106B5000314601D0D368ECE728461946FFF700FF1D
:106B60006A6A116811B12846FFF7FAFE696911B126
:106B70002846FFF7F5FE696A11B12846FFF7F0FED7
:106B8000A96B11B12846FFF7EBFEE96B11B128465E
:106B9000FFF7E6FE296C11B12846FFF7E1FEAB6C6A
:106BA0002BB1D3F8881011B12846FFF7D9FE696BD5
:106BB00011B12846FFF7D4FEAB6903B970BDAB6ACB
:106BC00028469847D5F8D8100029F7D02846BDE8C0
:106BD000704091E770B5064688B1B36C53B15D68FB
:106BE0006C1E07D4023503EB850555F8043D984724
:106BF000013CFAD5B36A0BB13046984770BD40F2FC
:106C0000A003C2F200031E68E7E700BF81F0004165
:106C100002E000BF83F0004330B54FEA41044FEA81
:106C2000430594EA050F08BF90EA020F1FBF54EA1C
:106C3000000C55EA020C7FEA645C7FEA655C00F0B8
:106C4000E2804FEA5454D4EB5555B8BF6D420CDD89
:106C50002C4480EA020281EA030382EA000083EA0C
:106C6000010180EA020281EA0303362D88BF30BDAC
:106C700011F0004F4FEA01314FF4801C4CEA113102
:106C800002D0404261EB410113F0004F4FEA033361
:106C90004CEA133302D0524263EB430394EA050FEC
:106CA00000F0A780A4F10104D5F1200E0DDB02FA5B
:106CB0000EFC22FA05F2801841F1000103FA0EF2EF
:106CC000801843FA05F359410EE0A5F120050EF1B5
:106CD000200E012A03FA0EFC28BF4CF0020C43FAE6
:106CE00005F3C01851EBE37101F0004507D54FF0F3
:106CF000000EDCF1000C7EEB00006EEB0101B1F543
:106D0000801F1BD3B1F5001F0CD349085FEA300088
:106D10004FEA3C0C04F101044FEA445212F5800F93
:106D200080F09A80BCF1004F08BF5FEA500C50F130
:106D3000000041EB045141EA050130BD5FEA4C0C13
:106D4000404141EB010111F4801FA4F10104E9D19C
:106D500091F0000F04BF01460020B1FA81F308BF93
:106D60002033A3F10B03B3F120020CDA0C3208DD5F
:106D700002F1140CC2F10C0201FA0CF021FA02F13A
:106D80000CE002F11402D8BFC2F1200C01FA02F1AA
:106D900020FA0CFCDCBF41EA0C019040E41AA2BFCF
:106DA00001EB0451294330BD6FEA04041F3C1CDA97
:106DB0000C340EDC04F11404C4F1200220FA04F0B7
:106DC00001FA02F340EA030021FA04F345EA030161
:106DD00030BDC4F10C04C4F1200220FA02F001FA23
:106DE00004F340EA0300294630BD21FA04F02946A5
:106DF00030BD94F0000F83F4801306BF81F480113E
:106E00000134013D4EE77FEA645C18BF7FEA655CB0
:106E100029D094EA050F08BF90EA020F05D054EA82
:106E2000000C04BF1946104630BD91EA030F1EBF87
:106E30000021002030BD5FEA545C05D1400049418B
:106E400028BF41F0004130BD14F580043CBF01F57E
:106E5000801130BD01F0004545F0FE4141F4700164
:106E60004FF0000030BD7FEA645C1ABF194610463F
:106E70007FEA655C1CBF0B46024650EA013406BF40
:106E800052EA033591EA030F41F4002130BD00BFFF
:106E900090F0000F04BF0021704730B54FF48064BC
:106EA00004F132044FF000054FF0000150E700BF3D
:106EB00090F0000F04BF0021704730B54FF480649C
:106EC00004F1320410F0004548BF40424FF0000189
:106ED0003EE700BF42004FEAE2014FEA31014FEACC
:106EE00002701FBF12F07F4393F07F4F81F060511B
:106EF000704792F0000F14BF93F07F4F704730B58A
:106F00004FF4607401F0004521F0004120E700BF1C
:106F100050EA010208BF704730B54FF000050AE0A3
:106F200050EA010208BF704730B511F0004502D5A4
:106F3000404261EB41014FF4806404F132045FEAA6
:106F4000915C3FF4DCAE4FF003025FEADC0C18BF4B
:106F500003325FEADC0C18BF033202EBDC02C2F141
:106F6000200300FA03FC20FA02F001FA03FE40EAD3
:106F70000E0021FA02F11444C1E600BF70B54FF0D3
:106F8000FF0C4CF4E06C1CEA11541DBF1CEA1355B5
:106F900094EA0C0F95EA0C0F00F0DEF82C4481EA1D
:106FA000030621EA4C5123EA4C5350EA013518BF3D
:106FB00052EA033541F4801143F4801338D0A0FB2A
:106FC00002CE4FF00005E1FB02E506F00042E0FBD7
:106FD00003E54FF00006E1FB03569CF0000F18BFDD
:106FE0004EF0010EA4F1FF04B6F5007F64F5407485
:106FF00004D25FEA4E0E6D4146EB060642EAC62118
:1070000041EA55514FEAC52040EA5E504FEACE2E84
:10701000B4F1FD0C88BFBCF5E06F1ED8BEF1004F87
:1070200008BF5FEA500E50F1000041EB045170BD03
:1070300006F0004646EA010140EA020081EA030147
:10704000B4EB5C04C2BFD4EB0C0541EA045170BD43
:1070500041F480114FF0000E013C00F3AB8014F1BD
:10706000360FDEBF002001F0004170BDC4F1000406
:10707000203C35DA0C341BDC04F11404C4F1200587
:1070800000FA05F320FA04F001FA05F240EA0200E2
:1070900001F0004221F0004110EBD37021FA04F618
:1070A00042EB06015EEA430E08BF20EAD37070BDD2
:1070B000C4F10C04C4F1200500FA04F320FA05F031
:1070C00001FA04F240EA020001F0004110EBD37033
:1070D00041F100015EEA430E08BF20EAD37070BDA3
:1070E000C4F1200500FA05F24EEA020E20FA04F37C
:1070F00001FA05F243EA020321FA04F001F000412B
:1071000021FA04F220EA020000EBD3705EEA430E9B
:1071100008BF20EAD37070BD94F0000F0FD101F0CA
:107120000046400041EB010111F4801F08BF013C03
:10713000F7D041EA060195F0000F18BF704703F041
:107140000046520043EB030313F4801F08BF013DC8
:10715000F7D043EA0603704794EA0C0F0CEA135584
:1071600018BF95EA0C0F0CD050EA410618BF52EA3E
:107170004306D1D181EA030101F000414FF0000044
:1071800070BD50EA410606BF1046194652EA430652
:1071900019D094EA0C0F02D150EA013613D195EAC6
:1071A0000C0F05D152EA03361CBF104619460AD10E
:1071B00081EA030101F0004141F0FE4141F4700118
:1071C0004FF0000070BD41F0FE4141F4780170BD08
:1071D00070B54FF0FF0C4CF4E06C1CEA11541DBF6D
:1071E0001CEA135594EA0C0F95EA0C0F00F0A7F86F
:1071F000A4EB050481EA030E52EA03354FEA01319C
:1072000000F088804FEA03334FF0805545EA1313AE
:1072100043EA12634FEA022245EA111545EA106576
:107220004FEA00260EF000419D4208BF964244F10D
:10723000FD0404F5407402D25B084FEA3202B61A2C
:1072400065EB03055B084FEA32024FF480104FF400
:10725000002CB6EB020E75EB030E22BFB61A754674
:1072600040EA0C005B084FEA3202B6EB020E75EB07
:10727000030E22BFB61A754640EA5C005B084FEA6F
:107280003202B6EB020E75EB030E22BFB61A75463C
:1072900040EA9C005B084FEA3202B6EB020E75EB47
:1072A000030E22BFB61A754640EADC0055EA060E08
:1072B00018D04FEA051545EA16754FEA06164FEA4B
:1072C000C30343EA52734FEAC2025FEA1C1CC0D1F7
:1072D00011F4801F0BD141EA00014FF000004FF084
:1072E000004CB6E711F4801F04BF01430020B4F145
:1072F000FD0C88BFBCF5E06F3FF6AFAEB5EB030CFD
:1073000004BFB6EB020C5FEA500C50F1000041EBF9
:10731000045170BD0EF0004E4EEA113114EB5C04C6
:10732000C2BFD4EB0C0541EA045170BD41F4801199
:107330004FF0000E013C90E645EA060E8DE60CEAA1
:10734000135594EA0C0F08BF95EA0C0F3FF43BAFBE
:1073500094EA0C0F0AD150EA01347FF434AF95EA75
:107360000C0F7FF425AF104619462CE795EA0C0F59
:1073700006D152EA03353FF4FDAE1046194622E726
:1073800050EA410618BF52EA43067FF4C5AE50EA00
:1073900041047FF40DAF52EA43057FF4EBAE12E7F0
:1073A0004FEA410212F5001215D211D56FF478732D
:1073B000B3EB625212D94FEAC12343F0004343EAD0
:1073C000505311F0004F23FA02F018BF40427047AB
:1073D0004FF00000704750EA013005D111F0004035
:1073E00008BF6FF0004070474FF00000704700BFCB
:1073F00010B5002103E00C4BCB580B5004310B4867
:107400000B4B0A189A42F6D30A4A02E0002342F8CC
:10741000043B094B9A42F9D34FF480731A68074B27
:107420001A6000F00DF810BDF89F01080000002060
:10743000A4050020A40500205006002030060020EE
:1074400090B585B002AF40F23063C2F200031B6812
:10745000D3F8D03298470346184649F6D071C0F6A3
:107460000101FEF755FE0346002B03DA02F0EEF9A8
:1074700003468FE000F074FA40F23063C2F200037A
:107480001B68D3F818311C464FF0000300934FF0EF
:1074900000004FF000014FF080024FF08003A04742
:1074A00040F23063C2F200031B68D3F850314FF052
:1074B0000000984701F064FD00F0C6FC40F236631E
:1074C000C2F200034FF001021A8040F23063C2F2B0
:1074D00000031B68D3F81C311C4640F20403C2F2BF
:1074E00000031B6803F1FF331A4640F20003C2F2A7
:1074F00000031B6803F1FF334FF0000100911046B9
:1075000019464FF00B024FF00703A04740F23063DB
:10751000C2F200031B68D3F818311C4640F2040382
:10752000C2F200031B681A4640F20003C2F20003D5
:107530001B684EF207010091104619464FF00902F0
:107540004FF00503A04740F23063C2F200031B680E
:10755000D3F8CC31984703465B881BB203F1030292
:10756000002BB8BF13464FEAA3039AB240F234632C
:10757000C2F200031A80786802F04AF840F23063E1
:10758000C2F200031B68D3F8B8324FF00A009847E4
:107590004FF00403184607F10C07BD4690BD00BF2D
:1075A00090B585B002AF40F23063C2F200031B68B1
:1075B000D3F8CC31984703465B881BB203F1030232
:1075C000002BB8BF13464FEAA303FB80FA8840F2B2
:1075D0003463C2F200031B889BB2D31A9BB2BB80F8
:1075E00040F23663C2F200031B881BB2012B40F04D
:1075F000068140F2F453C2F200031C68B7F906306A
:10760000184600F0C9FD034694FBF3F203FB02F3B6
:10761000E31A002B04D1B7F90630184602F04EF8F1
:1076200040F2F453C2F20003196846F26763C6F2EF
:10763000666383FB01234FEAA3024FEAE173D21A88
:1076400013464FEA83039B184FEA4303CA1A002AE2
:1076500001D101F0C1FE40F2F453C2F200031C68F4
:1076600000F0EAF9034694FBF3F203FB02F3E31A9A
:10767000002B01D101F0AAF840F23063C2F20003FE
:107680001B68D3F8003298470346DBB25BB2012B8C
:1076900018D040F23063C2F200031B68D3F81032F6
:1076A00098470346DBB25BB2022B0BD040F230634B
:1076B000C2F200031B68D3F88C3198470346DBB253
:1076C000002B11D040F2C853C2F200031B88002BDC
:1076D0000AD101F055FC40F2C853C2F200034FF04A
:1076E00001021A8001F0C0FD40F2C853C2F200034B
:1076F0001B88002B01D001F0FBFD40F2F453C2F2D5
:1077000000031A6848F21F53C5F2EB1383FB021300
:107710004FEA63114FEAE273CB1A4FF0640101FBA9
:1077200003F3D31A002B01D100F06CFD40F2F453A7
:10773000C2F20003196846F26763C6F2666383FB10
:1077400001234FEA63024FEAE173D21A13464FEA6C
:1077500083039B18CA1A002A0CD140F2C853C2F204
:1077600000031B88002B05D001F0EAFA01F0E8F9CC
:1077700001F084F940F2F453C2F200031A6848F2AF
:107780001F53C5F2EB1383FB02134FEA23114FEA99
:10779000E273CB1A4FF0320101FB03F3D31A002B33
:1077A00015D140F2CE53C2F200031B88002B0ED13C
:1077B00040F2CE53C2F200034FF001021A8040F2B1
:1077C000F453C2F200031B68184600F0A5FB40F218
:1077D000F453C2F200031C6800F0F6F8034694FB71
:1077E000F3F203FB02F3E31A002B08D140F2CE536D
:1077F000C2F200031B88002B01D000F071FB40F2A5
:107800003663C2F200031B881BB2022B40F0938048
:1078100040F2F453C2F200031A6844F6D353C1F2A3
:10782000620383FB02134FEAE3114FEAE273CB1AC0
:107830004FF4FA6101FB03F3D31A002B02D100F0DD
:10784000D7FD78E040F2F453C2F200031B6803F066
:107850000103002B6FD100F0D3FA40F23063C2F283
:1078600000031B68D3F88C3198470346DBB2002B2A
:1078700061D040F2DC53C2F200034FF000021A6004
:1078800040F29E03C2F200034FF001021A8040F260
:10789000CE53C2F200034FF000021A8040F29C0364
:1078A000C2F200034FF003021A8040F23663C2F2C4
:1078B00000034FF001021A8040F23063C2F200036D
:1078C0001B68D3F818311C464FF0000300934FF0AB
:1078D00000004FF000014FF080024FF08003A047FE
:1078E00001F04EFB00F028FD00F0AEFA40F2BC5370
:1078F000C2F200031B881BB2184601F089FE40F259
:10790000B853C2F200034FF000021A8040F2BA539B
:10791000C2F200034FF000021A8040F2E453C2F2B8
:1079200000034FF000021A6040F2E053C2F200037D
:107930004FF000021A6000F063FA40F2F453C2F212
:1079400000031B6803F1010240F2F453C2F200038A
:107950001A604FF00103184607F10C07BD4690BDB1
:1079600090B585B002AF40F23063C2F200031B68ED
:10797000D3F888301C4649F6C413C0F600034FF014
:107980008002009218464FF000014FF000024FF0C5
:107990008003A0474FF000037B604FF000037B6043
:1079A00003E07B6803F101037B607A684CF2BF63FC
:1079B000C0F22D039A42F4DD4FF00003184607F1A0
:1079C0000C07BD4690BD00BF80B500AF40F29E03DE
:1079D000C2F200031B881BB2142B02DD4FF001031F
:1079E00022E040F29E03C2F200031B881BB218463D
:1079F000FFF75EFA02460B46104619460CA3D3E980
:107A00000023FFF7BBFA02460B464FF000004FF091
:107A1000804101F5A011FFF7FDF802460B46104624
:107A20001946FFF7BDFC0346184680BDAFF3008042
:107A30009A9999999999C93F80B500AF40F29E03F0
:107A4000C2F200031B881BB21E2B02DD4FF00F0396
:107A500025E040F29E03C2F200031B881BB21846C9
:107A6000FFF726FA02460B46104619464FF0000271
:107A70004FF07E5303F5C003FFF780FA02460B4632
:107A80004FF000004FF0804101F57811FFF7C2F888
:107A900002460B4610461946FFF782FC034618467D
:107AA00080BD00BF90B583B002AF40F23063C2F238
:107AB00000031B68D3F818311C464FF000030093F5
:107AC0004FF000004FF075014FF080024FF00B03B4
:107AD000A04740F23063C2F200031B68D3F888303D
:107AE0001C4641F66033C0F601034FF009020092D4
:107AF00018464FF001014FF076024FF01D03A047EA
:107B000040F23063C2F200031B68D3F8CC321C464B
:107B100040F23863C2F2000340F2DC52C2F20002CB
:107B20001268184611464FF003024FF00103A047B8
:107B300040F23063C2F200031B68D3F8DC301C460D
:107B400040F23863C2F200034FF0010200924FF09E
:107B5000010201924FF01F004FF073011A464FF0DF
:107B60000403A04740F23063C2F200031B68D3F85D
:107B700088301C4641F66C53C0F601034FF00902F1
:107B8000009218464FF044014FF076024FF01E036A
:107B9000A04740F29C03C2F200031B881BB2002BDB
:107BA00055DD40F23063C2F200031B68D3F8883021
:107BB0001C4641F68873C0F601034FF0050200929F
:107BC00018464FF076014FF077024FF00903A047B7
:107BD00040F29C03C2F200031B881BB2012B38DD6C
:107BE00040F23063C2F200031B68D3F888301C46B1
:107BF00041F68873C0F601034FF005020092184663
:107C00004FF06E014FF077024FF00903A04740F2AA
:107C10009C03C2F200031B881BB2022B19DD40F249
:107C20003063C2F200031B68D3F888301C4641F66B
:107C30008873C0F601034FF00502009218464FF01A
:107C400066014FF077024FF00903A04701E000F012
:107C5000CFFB184607F10407BD4690BD90B583B031
:107C600002AF40F23063C2F200031B68D3F88830E1
:107C70001C4641F66033C0F601034FF00902009242
:107C800018464FF001014FF076024FF01D03A04758
:107C900040F23063C2F200031B68D3F8CC321C46BA
:107CA00040F23863C2F2000340F2DC52C2F200023A
:107CB0001268184611464FF003024FF00103A04727
:107CC00040F23063C2F200031B68D3F8DC301C467C
:107CD00040F23863C2F200034FF0010200924FF00D
:107CE000010201924FF01F004FF073011A464FF04E
:107CF0000403A047184607F10407BD4690BD00BF26
:107D000090B583B002AF40F23063C2F200031B684B
:107D1000D3F888301C4641F66C53C0F601034FF08F
:107D20000902009218464FF044014FF076024FF0DE
:107D30001E03A04740F29C03C2F200031B881BB243
:107D4000002B55DD40F23063C2F200031B68D3F80C
:107D500088301C4641F68873C0F601034FF00502D7
:107D6000009218464FF076014FF077024FF009036A
:107D7000A04740F29C03C2F200031B881BB2012BF8
:107D800038DD40F23063C2F200031B68D3F888305C
:107D90001C4641F68873C0F601034FF005020092BD
:107DA00018464FF06E014FF077024FF00903A047DD
:107DB00040F29C03C2F200031B881BB2022B19DDA8
:107DC00040F23063C2F200031B68D3F888301C46CF
:107DD00041F68873C0F601034FF005020092184681
:107DE0004FF066014FF077024FF00903A04701E022
:107DF00000F0FEFA184607F10407BD4690BD00BF2B
:107E000080B500AF40F23063C2F200031B68D3F8C4
:107E1000103298470346DBB25BB2042B11D140F21B
:107E20003063C2F200031B68D3F81432984740F263
:107E30003063C2F200031B68D3F8A83298470346A8
:107E4000FFE7184680BD00BF90B583B002AF40F297
:107E50003063C2F200031B68D3F818311C4640F2AD
:107E60009803C2F200031B881AB240F2CA53C2F24E
:107E700000031B8819B240F2CC53C2F200031B88E6
:107E80001BB2CB1A03F101034FF000010091104621
:107E900019464FF002024FF00403A04740F2CE53C0
:107EA000C2F200034FF000021A8040F29803C2F2BF
:107EB00000034FF000021A8040F2CA53C2F20003DE
:107EC0004FF000021A8040F2CC53C2F200034FF090
:107ED00000021A80184607F10407BD4690BD00BF96
:107EE00080B500AF40F2CC53C2F200031A8840F2D2
:107EF000CA53C2F200031B8812B21BB29A4202DDBF
:107F0000FFF7A2FF05E000F0E5F800F09FFE00F0AB
:107F1000B5FD184680BD00BF80B582B000AF786067
:107F2000FEF7A4F8014646F26763C6F2666383FB78
:107F300001234FEA63024FEAE173D21A13464FEA74
:107F400083039B18CA1A92B240F2D253C2F20003C2
:107F50001A80FEF78BF8014642F29343C9F2492397
:107F600083FB01235B184FEAA3024FEAE173D21AA5
:107F700013464FEAC3039B1ACA1A92B240F2D05377
:107F8000C2F200031A8040F2CE53C2F200031B88F3
:107F9000002B00F0998040F2D253C2F200031B88FC
:107FA00019B240F2D053C2F200031B8818B240F25B
:107FB0000802C2F2000203464FEA43031B184FEACD
:107FC00043000B464FEAC3035B184FEA8303C31811
:107FD000D3181B78002B74D040F2D253C2F20003A6
:107FE0001B8819B240F2D053C2F200031B8818B2AA
:107FF00040F20802C2F2000203464FEA43031B1894
:108000004FEA43000B464FEAC3035B184FEA830372
:10801000C318D3185B881BB203F1FF339BB24FEA3E
:1080200003139AB240F2B853C2F200031B889BB20A
:10803000D3189BB203F108039BB29AB240F29803A3
:10804000C2F200031A8040F2D253C2F200031B882E
:1080500019B240F2D053C2F200031B8818B240F2AA
:108060000802C2F2000203464FEA43031B184FEA1C
:1080700043000B464FEAC3035B184FEA8303C31860
:10808000D3189B881BB203F1FF339BB21A464FEA09
:108090004202D3184FEA83039AB240F2BA53C2F2B3
:1080A00000031B889BB2D3189BB203F143039BB21E
:1080B0009AB240F2CA53C2F200031A8000F00AF8E2
:1080C00002E07868FFF728FF184607F10807BD4669
:1080D00080BD00BF90B583B002AF40F23063C2F202
:1080E00000031B68D3F818311C4640F29803C2F213
:1080F00000031B881AB240F2CA53C2F200031B8865
:1081000019B240F2CC53C2F200031B881BB2CB1A47
:1081100003F101034FF000010091104619464FF0A2
:1081200002024FF00403A04740F23063C2F20003A2
:108130001B68D3F818311C4640F29803C2F20003C2
:108140001B881AB240F2CA53C2F200031B8819B24C
:1081500040F2CC53C2F200031B881BB2CB1A4FF47F
:10816000F8510091104619464FF002024FF00303F8
:10817000A04740F2CC53C2F200031B8803F1010375
:108180009AB240F2CC53C2F200031A80184607F1AB
:108190000407BD4690BD00BF80B582B000AF7860D7
:1081A000786801F019FB0346002B0ED07A6848F27C
:1081B0001F53C5F2EB1383FB02134FEA63114FEA1F
:1081C000E273CB1AC3F1070316E0786801F020FBD5
:1081D0000346002B0ED07A6848F21F53C5F2EB130A
:1081E00083FB02134FEA63114FEAE273CB1A03F1E8
:1081F000070301E04FF00203184607F10807BD46E8
:1082000080BD00BF80B500AF40F2B053C2F20003A2
:108210004FF000021A6052E040F2AC53C2F2000389
:108220004FF000021A6037E040F2B053C2F2000390
:10823000196840F2AC53C2F20003186840F2080219
:10824000C2F2000203464FEA43031B184FEA430001
:108250000B464FEAC3035B184FEA8303C318D318D6
:108260001B78002B0CD140F2D653C2F200031B88BE
:1082700003F101039AB240F2D653C2F200031A800E
:1082800040F2AC53C2F200031B6803F1010240F25A
:10829000AC53C2F200031A6040F2AC53C2F20003C6
:1082A0001B68052BC0DD40F2B053C2F200031B680F
:1082B00003F1010240F2B053C2F200031A6040F22F
:1082C000B053C2F200031B68032BA5DD40F2D65366
:1082D000C2F200031B881BB2172B24DD00F02CF820
:1082E00040F2B853C2F200034FF000021A8040F28D
:1082F000BA53C2F200034FF000021A8040F29A0310
:10830000C2F200034FF001021A8040F2DC53C2F2C5
:1083100000031B6803F10A0240F2DC53C2F20003BF
:108320001A60FFF7BFFB40F2D653C2F200034FF0D2
:1083300000021A80184680BD80B400AF40F2B053EE
:10834000C2F200034FF000021A6045E040F2AC5365
:10835000C2F200034FF000021A602AE040F2B0536C
:10836000C2F20003196840F2AC53C2F2000318686D
:1083700040F20802C2F2000203464FEA43031B1810
:108380004FEA43000B464FEAC3035B184FEA8303EF
:10839000C318D3184FF001021A7040F2AC53C2F266
:1083A00000031B6803F1010240F2AC53C2F2000368
:1083B0001A6040F2AC53C2F200031B68052BCDDDFE
:1083C00040F2B053C2F200031B6803F1010240F215
:1083D000B053C2F200031A6040F2B053C2F200037D
:1083E0001B68032BB2DD1846BD4680BC704700BF3A
:1083F00090B583B002AF40F23063C2F200031B6855
:10840000D3F818311C464FF0000300934FF00000E2
:108410004FF000014FF080024FF08003A04740F280
:108420003063C2F200031B68D3F888301C4641F663
:10843000D073C0F601034FF08002009218464FF04F
:1084400000014FF000024FF08003A04740F230637C
:10845000C2F200031B68D3F8CC321C4640F24463DE
:10846000C2F2000340F2DC52C2F200021268184667
:1084700011464FF004024FF00003A04740F2306372
:10848000C2F200031B68D3F8DC301C4640F23863AC
:10849000C2F200034FF0010200924FF0000201927D
:1084A0004FF03C004FF02B011A464FF00403A04759
:1084B00040F23663C2F200034FF002021A804FF01E
:1084C0000003184607F10407BD4690BD80B400AF15
:1084D00040F2E453C2F200034FF000021A6040F28F
:1084E000AC53C2F200034FF000021A6061E040F2A8
:1084F000B053C2F200034FF000021A6046E040F2AF
:10850000B053C2F20003196840F2AC53C2F2000348
:10851000186840F20802C2F2000203464FEA430321
:108520001B184FEA43000B464FEAC3035B184FEAA0
:108530008303C318D3181B78002B18D140F2E453DF
:10854000C2F200031B6803F1010240F2E453C2F2DD
:1085500000031A6040F2B053C2F200031B6803F13B
:10856000010240F2B053C2F200031A600EE040F282
:10857000E453C2F200031B6803F10302002BB8BFEF
:1085800013464FEAA3034FEA031319E040F2B05336
:10859000C2F200031B68032BB1DD40F2AC53C2F200
:1085A00000031B6803F1010240F2AC53C2F2000366
:1085B0001A6040F2AC53C2F200031B68052B96DD33
:1085C0001846BD4680BC704780B400AF40F2E0530F
:1085D000C2F200034FF000021A6040F2AC53C2F244
:1085E00000034FF005021A6061E040F2B053C2F29E
:1085F00000034FF000021A6046E040F2B053C2F2AE
:108600000003196840F2AC53C2F20003186840F24C
:108610000802C2F2000203464FEA43031B184FEA66
:1086200043000B464FEAC3035B184FEA8303C318AA
:10863000D3181B78002B18D140F2E053C2F200038C
:108640001B6803F1010240F2E053C2F200031A601A
:1086500040F2B053C2F200031B6803F1010240F282
:10866000B053C2F200031A600EE040F2E053C2F2CF
:1086700000031B6803F10302002BB8BF13464FEA47
:10868000A3034FEA031319E040F2B053C2F2000310
:108690001B68032BB1DD40F2AC53C2F200031B6830
:1086A00003F1FF3240F2AC53C2F200031A6040F211
:1086B000AC53C2F200031B68002B96DA1846BD4685
:1086C00080BC704780B400AF40F2E853C2F20003B0
:1086D0004FF000021A6040F2B053C2F200034FF0B4
:1086E00000021A6067E040F2AC53C2F200034FF0A0
:1086F00000021A604CE040F2B053C2F20003196865
:1087000040F2AC53C2F20003186840F20802C2F211
:10871000000203464FEA43031B184FEA43000B468F
:108720004FEAC3035B184FEA8303C318D3181B78BF
:10873000002B18D140F2E853C2F200031B6803F18A
:10874000010240F2E853C2F200031A6040F2AC5357
:10875000C2F200031B6803F1010240F2AC53C2F203
:1087600000031A6014E040F2E853C2F200031A68F2
:108770004AF6AB23C2F6AA2383FB02014FEAE27357
:10878000CA1A13464FEA43039B184FEA830319E0C2
:1087900040F2AC53C2F200031B68042BABDD40F285
:1087A000B053C2F200031B6803F1010240F2B05360
:1087B000C2F200031A6040F2B053C2F200031B6819
:1087C000042B90DD1846BD4680BC704790B583B041
:1087D00002AF40F29A03C2F200031B88002B00F0A4
:1087E0008F8040F2B853C2F200031B8803F10103EB
:1087F0009AB240F2B853C2F200031A8040F2B85362
:10880000C2F200031B881CB2FFF7DEFE034603F131
:108810001E039C4240F3008140F23063C2F2000329
:108820001B68D3F818311C464FF0000300934FF03B
:1088300000004FF030014FF080024FF04403A0479A
:1088400040F2BA53C2F200031B889BB2A3F10503A6
:108850009BB29AB240F2BA53C2F200031A8040F2BD
:108860009A03C2F200034FF000021A8040F29E0306
:10887000C2F200031B889BB203F101039BB29AB2C0
:1088800040F29E03C2F200031A8040F2BA53C2F2D1
:1088900000031B881CB2FFF715FF02464FF6E17379
:1088A000CFF6FF739B1A9C4280F2B68040F2306391
:1088B000C2F200031B68D3F818311C464FF00003C6
:1088C00000934FF000004FF026014FF080024FF070
:1088D0004E03A04700F0A8F840F29C03C2F2000348
:1088E0001B889BB203F1FF339BB29AB240F29C0308
:1088F000C2F200031A80FFF7D5F800F06DFD8BE09F
:1089000040F2B853C2F200031B8803F1FF339AB25E
:1089100040F2B853C2F200031A8040F2B853C2F2D8
:1089200000031B881CB2FFF7D1FD0346C3F101030E
:108930009C4271DA40F23063C2F200031B68D3F844
:1089400018311C464FF0000300934FF000004FF029
:1089500026014FF080024FF04E03A04740F2BA5379
:10896000C2F200031B889BB2A3F105039BB29AB22B
:1089700040F2BA53C2F200031A8040F29A03C2F2E4
:1089800000034FF001021A8040F29E03C2F200037E
:108990001B889BB203F101039BB29AB240F29E0383
:1089A000C2F200031A8040F2BA53C2F200031B88DD
:1089B0001CB2FFF787FE02464FF6E173CFF6FF7356
:1089C0009B1A9C4228DA40F23063C2F200031B6813
:1089D000D3F818311C464FF0000300934FF000000D
:1089E0004FF030014FF080024FF04403A04700F0F9
:1089F0001BF840F29C03C2F200031B889BB203F1F8
:108A0000FF339BB29AB240F29C03C2F200031A8079
:108A1000FFF748F800F0E0FC00F0DEFC184607F134
:108A20000407BD4690BD00BF80B400AF40F2B8530C
:108A3000C2F200034FF000021A8040F2BA53C2F2B1
:108A400000034FF000021A8040F2E053C2F200032C
:108A50004FF000021A6040F2E453C2F200034FF0FC
:108A600000021A6040F29A03C2F200034FF00102C2
:108A70001A801846BD4680BC704700BF80B500AF65
:108A800040F23063C2F200031B68D3F804311A4687
:108A900040F29803C2F200031B8819B240F2CA5395
:108AA000C2F200031B8818B240F2CC53C2F200039A
:108AB0001B881BB2C31A08461946904703469AB250
:108AC0004AF2F8339A4226D040F23063C2F20003F1
:108AD0001B68D3F804311A4640F29803C2F200032F
:108AE0001B881BB203F10103194640F2CA53C2F2BC
:108AF00000031B8818B240F2CC53C2F200031B885B
:108B00001BB2C31A08461946904703469AB24AF266
:108B1000F8339A4212D140F29C03C2F200031B8840
:108B20009BB203F1FF339BB29AB240F29C03C2F2B4
:108B300000031A80FEF7B6FFFFF786F9184680BDDE
:108B400090B583B002AF40F23063C2F200031B68FD
:108B5000D3F804311A4640F2C453C2F200031B8812
:108B60001BB203F10103194640F2C653C2F20003DF
:108B70001B881BB203F1030040F2C253C2F2000390
:108B80001B881BB2C31803F101030846194690471E
:108B900003469AB24CF267539A4227D040F23063B0
:108BA000C2F200031B68D3F804311A4640F2C453E2
:108BB000C2F200031B8819B240F2C653C2F200038E
:108BC0001B881BB203F1030040F2C253C2F2000340
:108BD0001B881BB2C31803F10103084619469047CE
:108BE00003469AB24CF267539A422AD140F230635C
:108BF000C2F200031B68D3F818311C4640F2C4537C
:108C0000C2F200031B881AB240F2C653C2F200033C
:108C10001B881BB203F1030140F2C253C2F20003EE
:108C20001B881BB2CB1803F101034FF00001009128
:108C3000104619464FF002024FF00103A04700F022
:108C40009FF9184607F10407BD4690BD90B583B063
:108C500002AF40F23063C2F200031B68D3F8043164
:108C60001A4640F29803C2F200031B8819B240F280
:108C7000CA53C2F200031B8818B240F2CC53C2F2AE
:108C800000031B881BB2C31A0846194690470346C7
:108C90009AB24CF267539A4226D040F23063C2F245
:108CA00000031B68D3F804311A4640F29803C2F25D
:108CB00000031B881BB203F10103194640F2CA539B
:108CC000C2F200031B8818B240F2CC53C2F2000378
:108CD0001B881BB2C31A08461946904703469AB22E
:108CE0004CF267539A4226D140F23063C2F200033D
:108CF0001B68D3F818311C4640F29803C2F20003F7
:108D00001B881AB240F2CA53C2F200031B8819B280
:108D100040F2CC53C2F200031B881BB2CB1A4FF0B7
:108D200000010091104619464FF002024FF0010376
:108D3000A047FFF789F8184607F10407BD4690BD24
:108D400098B500AF40F2B053C2F200034FF00002FA
:108D50001A6009E140F2AC53C2F200034FF0000286
:108D60001A60E4E040F2B053C2F20003196840F226
:108D7000AC53C2F20003186840F20802C2F20002CB
:108D800003464FEA43031B184FEA43000B464FEAE2
:108D9000C3035B184FEA8303C318D3181B78002B57
:108DA00000F0B28040F2B053C2F20003196840F202
:108DB000AC53C2F20003186840F20802C2F200028B
:108DC00003464FEA43031B184FEA43000B464FEAA2
:108DD000C3035B184FEA8303C318D3185B881CB224
:108DE00040F2B053C2F20003196840F2AC53C2F231
:108DF0000003186840F20802C2F2000203464FEA7C
:108E000043031B184FEA43000B464FEAC3035B18AA
:108E10004FEA8303C318D3189B881BB22046194618
:108E200000F0FAF80346002B6ED040F2B053C2F2C5
:108E30000003196840F2AC53C2F20003186840F214
:108E40000802C2F2000203464FEA43031B184FEA2E
:108E500043000B464FEAC3035B184FEA8303C31872
:108E6000D3184FF000021A7040F2B053C2F2000360
:108E7000196840F2AC53C2F20003186840F20802CD
:108E8000C2F2000203464FEA43031B184FEA4300B5
:108E90000B464FEAC3035B184FEA8303C318D3188A
:108EA0005B881CB240F2B053C2F20003196840F272
:108EB000AC53C2F20003186840F20802C2F200028A
:108EC00003464FEA43031B184FEA43000B464FEAA1
:108ED000C3035B184FEA8303C318D3189B881BB2E4
:108EE0002046194600F060F940F2DC53C2F200035C
:108EF0001B6803F1010240F2DC53C2F200031A6066
:108F0000FEF7D0FD00F03CF840F2C853C2F2000377
:108F10001B88002B14D040F2AC53C2F200031B6834
:108F200003F1010240F2AC53C2F200031A6040F2B6
:108F3000AC53C2F200031B68052B7FF713AF00E0B0
:108F400000BF40F2C853C2F200031B88002B14D0AC
:108F500040F2B053C2F200031B6803F1010240F279
:108F6000B053C2F200031A6040F2B053C2F20003E1
:108F70001B68032B7FF7EEAE00E000BF184698BDDC
:108F800090B583B002AF40F23063C2F200031B68B9
:108F9000D3F818311C4640F2C453C2F200031B88B8
:108FA0001AB240F2C653C2F200031B8819B240F253
:108FB000C253C2F200031B881BB2CB1803F1FF336C
:108FC0004FF000010091104619464FF004024FF097
:108FD0000503A04740F2C853C2F200034FF000025D
:108FE0001A8040F2C453C2F200034FF000021A800C
:108FF00040F2C653C2F200034FF00A021A8040F258
:10900000C253C2F200034FF000021A80184607F163
:109010000407BD4690BD00BF80B483B000AF786048
:1090200039607B6803F1FF339BB24FEA03139AB2B6
:1090300040F2B853C2F200031B889BB2D3189BB214
:1090400003F105039BB29AB240F2B453C2F200039B
:109050001A803B6803F1FF339BB21A464FEA420283
:10906000D3184FEA83039AB240F2BA53C2F2000314
:109070001B889BB2D3189BB203F146039BB29AB2F2
:1090800040F2B653C2F200031A8040F2C453C2F257
:1090900000031B889BB203F101039BB29AB240F21A
:1090A0003C63C2F200031A8040F2C653C2F20003CE
:1090B0001B889AB240F2C253C2F200031B889BB2D3
:1090C000D3189BB203F101039BB29AB240F24863FA
:1090D000C2F200031A8040F2B453C2F200031B88AC
:1090E0009BB203F104039BB29AB240F23E63C2F218
:1090F00000031A8040F2B653C2F200031B889BB2F1
:1091000003F104039BB29AB240F24A63C2F2000335
:109110001A8040F23E63C2F200031B881AB240F28A
:109120003C63C2F200031B881BB2D31A042B32DC4F
:1091300040F23C63C2F200031B881AB240F23E6365
:10914000C2F200031B881BB2D31A042B23DC40F2AB
:109150004A63C2F200031B881AB240F24863C2F2AB
:1091600000031B881BB2D31A042B11DC40F24863A6
:10917000C2F200031B881AB240F24A63C2F2000333
:109180001B881BB2D31A042B02DC4FF0010304E04E
:109190004FF0000301E04FF00003184607F10C0701
:1091A000BD4680BC704700BF90B585B002AF786007
:1091B00039607B6803F1FF339BB24FEA03139AB225
:1091C00040F2B853C2F200031B889BB2D3189BB283
:1091D00003F105039BB29AB240F2B453C2F200030A
:1091E0001A803B6803F1FF339BB21A464FEA4202F2
:1091F000D3184FEA83039AB240F2BA53C2F2000383
:109200001B889BB2D3189BB203F146039BB29AB260
:1092100040F2B653C2F200031A8040F23063C2F249
:1092200000031B68D3F818311C4640F2B453C2F255
:1092300000031B881BB203F1FF331A4640F2B653FA
:10924000C2F200031B881BB24FF0000100911046D0
:1092500019464FF00A024FF00803A047184607F1DD
:109260000C07BD4690BD00BF90B583B002AF40F281
:109270000403C2F200031B689BB203F103039BB219
:109280009AB240F2C453C2F200031A8040F2C653AD
:10929000C2F200034FF00A021A8040F23063C2F2B9
:1092A00000031B68D3F818311C4640F2C453C2F2C5
:1092B00000031B881AB240F2C653C2F200031B8897
:1092C00019B240F2C253C2F200031B881BB2CB1882
:1092D0004FF0F8010091104619464FF002024FF08E
:1092E0000303A047184607F10407BD4690BD00BF21
:1092F00090B583B002AF40F2C253C2F200031B88A4
:109300001AB240F2C653C2F200031B881BB2C3F16B
:1093100080039A4202DDFFF733FE58E040F2C25369
:10932000C2F200031B8803F101039AB240F2C25358
:10933000C2F200031A8040F23063C2F200031B68DD
:10934000D3F818311C4640F2C453C2F200031B8804
:109350001AB240F2C653C2F200031B8819B240F29F
:10936000C253C2F200031B881BB2CB18A3F1020345
:109370004FF000010091104619464FF002024FF0E5
:109380000503A04740F23063C2F200031B68D3F824
:1093900018311C4640F2C453C2F200031B881AB2B3
:1093A00040F2C653C2F200031B8819B240F2C25306
:1093B000C2F200031B881BB2CB184FF0F8010091DA
:1093C000104619464FF002024FF00303A04718461B
:1093D00007F10407BD4690BD98B500AF40F2B05309
:1093E000C2F200034FF000021A6085E040F2AC5375
:1093F000C2F200034FF000021A606AE040F2B0537C
:10940000C2F20003196840F2AC53C2F200031868BC
:1094100040F20802C2F2000203464FEA43031B185F
:109420004FEA43000B464FEAC3035B184FEA83033E
:10943000C318D3181B78002B3FD040F2B053C2F2B0
:109440000003196840F2AC53C2F20003186840F2FE
:109450000802C2F2000203464FEA43031B184FEA18
:1094600043000B464FEAC3035B184FEA8303C3185C
:10947000D3185B881CB240F2B053C2F200031968E3
:1094800040F2AC53C2F20003186840F20802C2F284
:10949000000203464FEA43031B184FEA43000B4602
:1094A0004FEAC3035B184FEA8303C318D3189B88A2
:1094B0001BB22046194600F02BF840F2AC53C2F222
:1094C00000031B6803F1010240F2AC53C2F2000337
:1094D0001A6040F2AC53C2F200031B68052B8DDD0D
:1094E00040F2B053C2F200031B6803F1010240F2E4
:1094F000B053C2F200031A6040F2B053C2F200034C
:109500001B68032B7FF772AF4FF00003184698BD1E
:1095100090B585B002AF786039607B6803F1FF33A6
:109520009BB24FEA03139AB240F2B853C2F200035F
:109530001B889BB2D3189BB203F105039BB29AB26E
:1095400040F2B453C2F200031A803B6803F1FF33C8
:109550009BB21A464FEA4202D3184FEA83039AB2EB
:1095600040F2BA53C2F200031B889BB2D3189BB2DD
:1095700003F146039BB29AB240F2B653C2F2000323
:109580001A8040F23063C2F200031B68D3F818312E
:109590001C4640F2B453C2F200031B881BB203F115
:1095A000FF331A4640F2B653C2F200031B881BB2C7
:1095B0004FF000010091104619464FF00A024FF09B
:1095C0000803A04740F23063C2F200031B68D3F8DF
:1095D00088301C4641F6C413C0F6010340F2B45271
:1095E000C2F20002128811B240F2B652C2F2000278
:1095F000128812B24FF00800009018464FF008038E
:10960000A0474FF00003184607F10C07BD4690BD78
:1096100090B587B002AF78604FF00003FB6044E084
:10962000FA6813464FEA43039B184FEA43131A465E
:1096300045F25653C5F2555383FB02014FEAE273DC
:10964000CB1A9BB203F10A039BB29AB240F2BE530B
:10965000C2F200031A8040F2C053C2F200034FF07E
:1096600017021A8040F23063C2F200031B68D3F87D
:1096700088301C4641F64423C0F6010340F2BE5236
:10968000C2F20002128811B240F2C052C2F20002CD
:10969000128812B24FF00800009018464FF00C03E9
:1096A000A047FB6803F10103FB60FB68032BB7DDF8
:1096B000184607F11407BD4690BD00BF80B582B0C3
:1096C00000AF7860786800F087F80346002B01D07F
:1096D00000F010F8786800F09BF80346002B02D0E9
:1096E00000F01CF801E000F02DF8184607F108071B
:1096F000BD4680BD80B500AF40F20403C2F2000356
:109700001B6803F1010240F20403C2F200031A6075
:1097100000F018F84FF00003184680BD80B500AF88
:1097200040F20403C2F200031B6803F1FF3240F26F
:109730000403C2F200031A6000F004F84FF00003C3
:10974000184680BD90B583B002AF40F23063C2F2DC
:1097500000031B68D3F81C311C4640F20403C2F21C
:1097600000031B6803F1FF331A4640F20003C2F204
:1097700000031B6803F1FF334FF000010091104616
:1097800019464FF00B024FF00703A04740F2306339
:10979000C2F200031B68D3F888301C4641F604333C
:1097A000C0F6010340F20402C2F200021268114640
:1097B00040F20002C2F2000212684FF00500009071
:1097C00018464FF00903A0474FF00003184607F171
:1097D0000407BD4690BD00BF80B483B000AF786081
:1097E00040F20403C2F200031B68712B08DC7B68A3
:1097F000002B05DD7B68322B02DD4FF0010301E019
:109800004FF00003184607F10C07BD4680BC7047B7
:1098100080B483B000AF786040F20403C2F200036A
:109820001B68052B09DD7B68002B06DA7B6813F1CA
:10983000320F02DA4FF0010301E04FF00003184647
:1098400007F10C07BD4680BC704700BF90B583B0E0
:1098500000AF40F23063C2F200031B68D3F89C30C3
:109860001C4649F6D873C0F601034FF005004FF0CF
:109870003C011A464FF01103A04740F23063C2F298
:1098800000031B68D3F89C301C4640F23063C2F2E0
:1098900000031B68D3F8D032984703464FF05000BE
:1098A0004FF03C011A464FF00603A04740F23063E8
:1098B000C2F200031B68D3F89C301C4649F6D073F3
:1098C000C0F601034FF005004FF022011A464FF099
:1098D0000603A04740F23063C2F200031B68D3F8CE
:1098E0009C301C4649F6E473C0F601034FF0320089
:1098F0004FF022011A464FF00C03A04740F23063AC
:10990000C2F200031B68D3F8043307F1070007F124
:10991000060107F1050298477B7903F10403DBB2E6
:109920007B717A7948F68903C8F68803A3FB021392
:109930004FEA53110B464FEA03135B1A4FEA8303B6
:10994000D31ADBB27B7140F23063C2F200031B68B2
:10995000D3F8043307F1070007F1060107F1040209
:1099600098473A797B799A42EDD140F23063C2F25E
:1099700000031B68D3F8843098474FF00203184661
:1099800007F10C07BD4690BD00B5094B1B68002BC5
:1099900002D1074A074B1360054B1A6810186B4633
:1099A000984200D9FEE7024B1860101C02BC084721
:1099B0002C060020D80500205370616365496E763F
:1099C0000000000000000000000000000000000097
:1099D0000000000000000000000000000000000087
:1099E0000000000000000000000000000000000077
:1099F0000000000000000000000000000000000067
:109D00000000000000000000FFFF00000000000055
:109D1000FFFFFFFFFFFF0000000000000000000049
:109D20000000000000000000000000000000000033
:109D30000000000000000000000000000000000023
:109D40000000000000000000000000000000000013
:109D50000000000000000000000000000000000003
:109D600000000000000000000000000000000000F3
:109D700000000000000000000000000000000000E3
:109D800000000000000000000000000000000000D3
:109D900000000000000000000000000000000000C3
:109DA00000000000000000000000000000000000B3
:109DB00000000000000000000000000000000000A3
:109DC0000000000000000000000000000000000093
:109DD0000000000000000000000000000000000083
:109DE0000000000000000000000000000000000073
:109DF0000000000000000000000000000000000063
:109E0000000000000000FFFFFFFF00000000FFFF58
:109E1000FFFFFFFFFFFFFFFF00000000000000004A
:109E20000000000000000000000000000000000032
:109E30000000000000000000000000000000000022
:109E40000000000000000000000000000000000012
:109E50000000000000000000000000000000000002
:109E600000000000000000000000000000000000F2
:109E700000000000000000000000000000000000E2
:109E800000000000000000000000000000000000D2
:109E900000000000000000000000000000000000C2
:109EA00000000000000000000000000000000000B2
:109EB00000000000000000000000000000000000A2
:109EC0000000000000000000000000000000000092
:109ED0000000000000000000000000000000000082
:109EE0000000000000000000000000000000000072
:109EF0000000000000000000000000000000000062
:109F0000000000000000FFFF000000000000FFFF55
:109F1000000000000000FFFF000000000000000043
:109F20000000000000000000000000000000000031
:109F30000000000000000000000000000000000021
:109F40000000000000000000000000000000000011
:109F50000000000000000000000000000000000001
:109F600000000000000000000000000000000000F1
:109F700000000000000000000000000000000000E1
:109F800000000000000000000000000000000000D1
:109F900000000000000000000000000000000000C1
:109FA00000000000000000000000000000000000B1
:109FB00000000000000000000000000000000000A1
:109FC0000000000000000000000000000000000091
:109FD0000000000000000000000000000000000081
:109FE0000000000000000000000000000000000071
:109FF0000000000000000000000000000000000061
:10A00000000000000000FFFF000000000000FFFF54
:10A01000000000000000FFFF000000000000000042
:10A020000000000000000000000000000000000030
:10A030000000000000000000000000000000000020
:10A040000000000000000000000000000000000010
:10A050000000000000000000000000000000000000
:10A0600000000000000000000000000000000000F0
:10A0700000000000000000000000000000000000E0
:10A0800000000000000000000000000000000000D0
:10A0900000000000000000000000000000000000C0
:10A0A00000000000000000000000000000000000B0
:10A0B00000000000000000000000000000000000A0
:10A0C0000000000000000000000000000000000090
:10A0D0000000000000000000000000000000000080
:10A0E0000000000000000000000000000000000070
:10A0F0000000000000000000000000000000000060
:10A10000000000000000FFFF000000000000FFFF53
:10A11000000000000000FFFF000000000000000041
:10A12000000000000000000000000000000000002F
:10A13000000000000000000000000000000000001F
:10A14000000000000000000000000000000000000F
:10A1500000000000000000000000000000000000FF
:10A1600000000000000000000000000000000000EF
:10A1700000000000000000000000000000000000DF
:10A1800000000000000000000000000000000000CF
:10A1900000000000000000000000000000000000BF
:10A1A00000000000000000000000000000000000AF
:10A1B000000000000000000000000000000000009F
:10A1C000000000000000000000000000000000008F
:10A1D000000000000000000000000000000000007F
:10A1E000000000000000000000000000000000006F
:10A1F000000000000000000000000000000000005F
:10A20000000000000000FFFF000000000000FFFF52
:10A21000000000000000FFFF000000000000000040
:10A22000000000000000000000000000000000002E
:10A23000000000000000000000000000000000001E
:10A24000000000000000000000000000000000000E
:10A2500000000000000000000000000000000000FE
:10A2600000000000000000000000000000000000EE
:10A2700000000000000000000000000000000000DE
:10A2800000000000000000000000000000000000CE
:10A2900000000000000000000000000000000000BE
:10A2A00000000000000000000000000000000000AE
:10A2B000000000000000000000000000000000009E
:10A2C000000000000000000000000000000000008E
:10A2D000000000000000000000000000000000007E
:10A2E000000000000000000000000000000000006E
:10A2F000000000000000000000000000000000005E
:10A30000000000000000FFFFFFFFFFFFFFFFFFFF57
:10A3100000000000FFFFFFFF000000000000000041
:10A32000000000000000000000000000000000002D
:10A33000000000000000000000000000000000001D
:10A34000000000000000000000000000000000000D
:10A3500000000000000000000000000000000000FD
:10A3600000000000000000000000000000000000ED
:10A3700000000000000000000000000000000000DD
:10A3800000000000000000000000000000000000CD
:10A3900000000000000000000000000000000000BD
:10A3A00000000000000000000000000000000000AD
:10A3B000000000000000000000000000000000009D
:10A3C000000000000000000000000000000000008D
:10A3D000000000000000000000000000000000007D
:10A3E000000000000000000000000000000000006D
:10A3F000000000000000000000000000000000005D
:10A400000000000000000000FFFFFFFFFFFF000052
:10A4100000000000FFFF000000000000000000003E
:10A42000000000000000000000000000000000002C
:10A43000000000000000000000000000000000001C
:10A44000000000000000000000000000000000000C
:10A4500000000000000000000000000000000000FC
:10A4600000000000000000000000000000000000EC
:10A4700000000000000000000000000000000000DC
:10A4800000000000000000000000000000000000CC
:10A4900000000000000000000000000000000000BC
:10A4A00000000000000000000000000000000000AC
:10A4B000000000000000000000000000000000009C
:10A4C000000000000000000000000000000000008C
:10A4D000000000000000000000000000000000007C
:10A4E000000000000000000000000000000000006C
:10A4F000000000000000000000000000000000005C
:10A50000000000000000000000000000000000004B
:10A51000000000000000000000000000000000003B
:10A52000000000000000000000000000000000002B
:10A53000000000000000000000000000000000001B
:10A54000000000000000000000000000000000000B
:10A5500000000000000000000000000000000000FB
:10A5600000000000000000000000000000000000EB
:10A5700000000000000000000000000000000000DB
:10A5800000000000000000000000000000000000CB
:10A5900000000000000000000000000000000000BB
:10A5A00000000000000000000000000000000000AB
:10A5B000000000000000000000000000000000009B
:10A5C000000000000000000000000000000000008B
:10A5D000000000000000000000000000000000007B
:10A5E000000000000000000000000000000000006B
:10A5F000000000000000000000000000000000005B
:10A600000000FFFF0000000000000000000000004C
:10A61000FFFF00000000000000000000000000003C
:10A62000000000000000000000000000000000002A
:10A63000000000000000000000000000000000001A
:10A64000000000000000000000000000000000000A
:10A6500000000000000000000000000000000000FA
:10A6600000000000000000000000000000000000EA
:10A6700000000000000000000000000000000000DA
:10A6800000000000000000000000000000000000CA
:10A6900000000000000000000000000000000000BA
:10A6A00000000000000000000000000000000000AA
:10A6B000000000000000000000000000000000009A
:10A6C000000000000000000000000000000000008A
:10A6D000000000000000000000000000000000007A
:10A6E000000000000000000000000000000000006A
:10A6F000000000000000000000000000000000005A
:10A700000000FFFFFFFFFFFFFFFFFFFFFFFFFFFF57
:10A71000FFFF00000000000000000000000000003B
:10A720000000000000000000000000000000000029
:10A730000000000000000000000000000000000019
:10A740000000000000000000000000000000000009
:10A7500000000000000000000000000000000000F9
:10A7600000000000000000000000000000000000E9
:10A7700000000000000000000000000000000000D9
:10A7800000000000000000000000000000000000C9
:10A7900000000000000000000000000000000000B9
:10A7A00000000000000000000000000000000000A9
:10A7B0000000000000000000000000000000000099
:10A7C0000000000000000000000000000000000089
:10A7D0000000000000000000000000000000000079
:10A7E0000000000000000000000000000000000069
:10A7F0000000000000000000000000000000000059
:10A800000000FFFFFFFFFFFFFFFFFFFFFFFFFFFF56
:10A81000FFFF00000000000000000000000000003A
:10A820000000000000000000000000000000000028
:10A830000000000000000000000000000000000018
:10A840000000000000000000000000000000000008
:10A8500000000000000000000000000000000000F8
:10A8600000000000000000000000000000000000E8
:10A8700000000000000000000000000000000000D8
:10A8800000000000000000000000000000000000C8
:10A8900000000000000000000000000000000000B8
:10A8A00000000000000000000000000000000000A8
:10A8B0000000000000000000000000000000000098
:10A8C0000000000000000000000000000000000088
:10A8D0000000000000000000000000000000000078
:10A8E0000000000000000000000000000000000068
:10A8F0000000000000000000000000000000000058
:10A900000000FFFF0000FFFF00000000000000004B
:10A91000FFFF000000000000000000000000000039
:10A920000000000000000000000000000000000027
:10A930000000000000000000000000000000000017
:10A940000000000000000000000000000000000007
:10A9500000000000000000000000000000000000F7
:10A9600000000000000000000000000000000000E7
:10A9700000000000000000000000000000000000D7
:10A9800000000000000000000000000000000000C7
:10A9900000000000000000000000000000000000B7
:10A9A00000000000000000000000000000000000A7
:10A9B0000000000000000000000000000000000097
:10A9C0000000000000000000000000000000000087
:10A9D0000000000000000000000000000000000077
:10A9E0000000000039E70000000000000000000047
:10A9F0000000000039E70000000000000000000037
:10AA0000000000000000FFFF000000000000000048
:10AA1000FFFF000000000000000000000000000038
:10AA20000000000000000000000000000000000026
:10AA30000000000000000000000000000000000016
:10AA40000000000000000000000000000000000006
:10AA500000000000000000000000000000000000F6
:10AA600000000000000000000000000000000000E6
:10AA700000000000000000000000000000000000D6
:10AA800000000000000000000000000000000000C6
:10AA900000000000000000000000000000000000B6
:10AAA00000000000000000000000000000000000A6
:10AAB0000000000000000000000000000000000096
:10AAC0000000000000000000000000000000000086
:10AAD0000000000000000000000000000000000076
:10AAE0000000000039E739E739E739E739E739E7A6
:10AAF00039E739E739E700000000000000000000F6
:10AB0000000000000000FFFF000000000000000047
:10AB1000FFFF000000000000000000000000000037
:10AB20000000000000000000000000000000000025
:10AB30000000000000000000000000000000000015
:10AB40000000000000000000000000000000000005
:10AB500000000000000000000000000000000000F5
:10AB600000000000000000000000000000000000E5
:10AB700000000000000000000000000000000000D5
:10AB800000000000000000000000000000000000C5
:10AB900000000000000000000000000000000000B5
:10ABA00000000000000000000000000000000000A5
:10ABB0000000000000000000000000000000000095
:10ABC0000000000000000000000000000000000085
:10ABD0000000000000000000000000000000000075
:10ABE0000000000039E739E739E739E739E739E7A5
:10ABF00039E739E739E700000000000000000000F5
:10AC0000000000000000FFFFFFFFFFFFFFFFFFFF4E
:10AC1000FFFF000000000000000000000000000036
:10AC20000000000000000000000000000000000024
:10AC30000000000000000000000000000000000014
:10AC40000000000000000000000000000000000004
:10AC500000000000000000000000000000000000F4
:10AC600000000000000000000000000000000000E4
:10AC700000000000000000000000000000000000D4
:10AC800000000000000000000000000000000000C4
:10AC900000000000000000000000000000000000B4
:10ACA00000000000000000000000000000000000A4
:10ACB0000000000000000000000000000000000094
:10ACC0000000000000000000000000000000000084
:10ACD0000000000000000000000000000000000074
:10ACE0000000000039E700000000000039E7000024
:10ACF0000000000039E70000000000000000000034
:10AD00000000000000000000FFFFFFFFFFFFFFFF4B
:10AD10000000000000000000000000000000000033
:10AD20000000000000000000000000000000000023
:10AD30000000000000000000000000000000000013
:10AD40000000000000000000000000000000000003
:10AD500000000000000000000000000000000000F3
:10AD600000000000000000000000000000000000E3
:10AD700000000000000000000000000000000000D3
:10AD800000000000000000000000000000000000C3
:10AD900000000000000000000000000000000000B3
:10ADA00000000000000000000000000000000000A3
:10ADB0000000000000000000000000000000000093
:10ADC0000000000000000000000000000000000083
:10ADD0000000000000000000000000000000000073
:10ADE0000000000039E700000000000039E7000023
:10ADF0000000000039E70000000000000000000033
:10AE00000000000000000000000000000000000042
:10AE10000000000000000000000000000000000032
:10AE20000000000000000000000000000000000022
:10AE30000000000000000000000000000000000012
:10AE40000000000000000000000000000000000002
:10AE500000000000000000000000000000000000F2
:10AE600000000000000000000000000000000000E2
:10AE700000000000000000000000000000000000D2
:10AE800000000000000000000000000000000000C2
:10AE900000000000000000000000000000000000B2
:10AEA00000000000000000000000000000000000A2
:10AEB0000000000000000000000000000000000092
:10AEC0000000000000000000000000000000000082
:10AED0000000000000000000000000000000000072
:10AEE0000000000039E700000000000039E7000022
:10AEF0000000000039E70000000000000000000032
:10AF00000000000000000000FFFFFFFF0000000045
:10AF10000000000000000000000000000000000031
:10AF20000000000000000000000000000000000021
:10AF30000000000000000000000000000000000011
:10AF40000000000000000000000000000000000001
:10AF500000000000000000000000000000000000F1
:10AF600000000000000000000000000000000000E1
:10AF700000000000000000000000000000000000D1
:10AF800000000000000000000000000000000000C1
:10AF900000000000000000000000000000000000B1
:10AFA00000000000000000000000000000000000A1
:10AFB0000000000000000000000000000000000091
:10AFC0000000000000000000000000000000000081
:10AFD0000000000000000000000000000000000071
:10AFE0000000000039E739E739E739E739E739E7A1
:10AFF00039E739E739E700000000000000000000F1
:10B00000000000000000FFFFFFFFFFFFFFFF000048
:10B01000FFFF000000000000000000000000000032
:10B020000000000000000000000000000000000020
:10B030000000000000000000000000000000000010
:10B040000000000000000000000000000000000000
:10B0500000000000000000000000000000000000F0
:10B0600000000000000000000000000000000000E0
:10B0700000000000000000000000000000000000D0
:10B0800000000000000000000000000000000000C0
:10B0900000000000000000000000000000000000B0
:10B0A00000000000000000000000000000000000A0
:10B0B0000000000000000000000000000000000090
:10B0C0000000000000000000000000000000000080
:10B0D0000000000000000000000000000000000070
:10B0E00000000000000039E739E739E7000039E7E0
:10B0F00039E739E700000000000000000000000010
:10B10000000000000000FFFF00000000FFFF000043
:10B11000FFFF000000000000000000000000000031
:10B12000000000000000000000000000000000001F
:10B13000000000000000000000000000000000000F
:10B1400000000000000000000000000000000000FF
:10B1500000000000000000000000000000000000EF
:10B1600000000000000000000000000000000000DF
:10B1700000000000000000000000000000000000CF
:10B1800000000000000000000000000000000000BF
:10B1900000000000000000000000000000000000AF
:10B1A000000000000000000000000000000000009F
:10B1B000000000000000000000000000000000008F
:10B1C000000000000000000000000000000000007F
:10B1D000000000000000000000000000000000006F
:10B1E000000000000000000000000000000000005F
:10B1F000000000000000000000000000000000004F
:10B20000000000000000FFFF00000000FFFF000042
:10B21000FFFF000000000000000000000000000030
:10B22000000000000000000000000000000000001E
:10B23000000000000000000000000000000000000E
:10B2400000000000000000000000000000000000FE
:10B2500000000000000000000000000000000000EE
:10B2600000000000000000000000000000000000DE
:10B2700000000000000000000000000000000000CE
:10B2800000000000000000000000000000000000BE
:10B2900000000000000000000000000000000000AE
:10B2A000000000000000000000000000000000009E
:10B2B000000000000000000000000000000000008E
:10B2C000000000000000000000000000000000007E
:10B2D000000000000000000000000000000000006E
:10B2E000000000000000000000000000000039E73E
:10B2F000000000000000000000000000000000004E
:10B30000000000000000FFFF00000000FFFF000041
:10B31000FFFF00000000000000000000000000002F
:10B32000000000000000000000000000000000001D
:10B33000000000000000000000000000000000000D
:10B3400000000000000000000000000000000000FD
:10B3500000000000000000000000000000000000ED
:10B3600000000000000000000000000000000000DD
:10B3700000000000000000000000000000000000CD
:10B3800000000000000000000000000000000000BD
:10B3900000000000000000000000000000000000AD
:10B3A000000000000000000000000000000000009D
:10B3B000000000000000000000000000000000008D
:10B3C000000000000000000000000000000000007D
:10B3D000000000000000000000000000000000006D
:10B3E00039E7000000000000000039E739E739E7DD
:10B3F000000000000000000000000000000000004D
:10B40000000000000000FFFFFFFFFFFFFFFFFFFF46
:10B41000FFFF00000000000000000000000000002E
:10B42000000000000000000000000000000000001C
:10B43000000000000000000000000000000000000C
:10B4400000000000000000000000000000000000FC
:10B4500000000000000000000000000000000000EC
:10B4600000000000000000000000000000000000DC
:10B4700000000000000000000000000000000000CC
:10B4800000000000000000000000000000000000BC
:10B4900000000000000000000000000000000000AC
:10B4A000000000000000000000000000000000009C
:10B4B000000000000000000000000000000000008C
:10B4C000000000000000000000000000000000007C
:10B4D000000000000000000000000000000000006C
:10B4E00039E70000000039E739E739E739E739E79C
:10B4F000000000000000000000000000000000004C
:10B50000000000000000FFFFFFFFFFFFFFFFFFFF45
:10B51000000000000000000000000000000000002B
:10B52000000000000000000000000000000000001B
:10B53000000000000000000000000000000000000B
:10B5400000000000000000000000000000000000FB
:10B5500000000000000000000000000000000000EB
:10B5600000000000000000000000000000000000DB
:10B5700000000000000000000000000000000000CB
:10B5800000000000000000000000000000000000BB
:10B5900000000000000000000000000000000000AB
:10B5A000000000000000000000000000000000009B
:10B5B000000000000000000000000000000000008B
:10B5C000000000000000000000000000000000007B
:10B5D000000000000000000000000000000000006B
:10B5E00039E739E739E739E739E70000000039E79B
:10B5F000000000000000000000000000000000004B
:10B60000000000000000FFFF00000000000000003C
:10B61000000000000000000000000000000000002A
:10B62000000000000000000000000000000000001A
:10B63000000000000000000000000000000000000A
:10B6400000000000000000000000000000000000FA
:10B6500000000000000000000000000000000000EA
:10B6600000000000000000000000000000000000DA
:10B6700000000000000000000000000000000000CA
:10B6800000000000000000000000000000000000BA
:10B6900000000000000000000000000000000000AA
:10B6A000000000000000000000000000000000009A
:10B6B000000000000000000000000000000000008A
:10B6C000000000000000000000000000000000007A
:10B6D000000000000000000000000000000000006A
:10B6E000000039E739E739E739E70000000039E7BA
:10B6F000000000000000000000000000000000004A
:10B700000000000000000000000000000000000039
:10B710000000000000000000000000000000000029
:10B720000000000000000000000000000000000019
:10B730000000000000000000000000000000000009
:10B7400000000000000000000000000000000000F9
:10B7500000000000000000000000000000000000E9
:10B7600000000000000000000000000000000000D9
:10B7700000000000000000000000000000000000C9
:10B7800000000000000000000000000000000000B9
:10B7900000000000000000000000000000000000A9
:10B7A0000000000000000000000000000000000099
:10B7B0000000000000000000000000000000000089
:10B7C0000000000000000000000000000000000079
:10B7D0000000000000000000000000000000000069
:10B7E00000000000000039E739E739E739E739E7B9
:10B7F0000000000000000000000000000000000049
:10B800000000000000000000FFFFFFFFFFFFFFFF40
:10B810000000000000000000000000000000000028
:10B820000000000000000000000000000000000018
:10B830000000000000000000000000000000000008
:10B8400000000000000000000000000000000000F8
:10B8500000000000000000000000000000000000E8
:10B8600000000000000000000000000000000000D8
:10B8700000000000000000000000000000000000C8
:10B8800000000000000000000000000000000000B8
:10B8900000000000000000000000000000000000A8
:10B8A0000000000000000000000000000000000098
:10B8B0000000000000000000000000000000000088
:10B8C0000000000000000000000000000000000078
:10B8D0000000000000000000000000000000000068
:10B8E0000000000000000000000039E739E739E7F8
:10B8F0000000000000000000000000000000000048
:10B90000000000000000FFFFFFFFFFFFFFFFFFFF41
:10B91000FFFF000000000000000000000000000029
:10B920000000000000000000000000000000000017
:10B930000000000000000000000000000000000007
:10B9400000000000000000000000000000000000F7
:10B9500000000000000000000000000000000000E7
:10B9600000000000000000000000000000000000D7
:10B9700000000000000000000000000000000000C7
:10B9800000000000000000000000000000000000B7
:10B9900000000000000000000000000000000000A7
:10B9A0000000000000000000000000000000000097
:10B9B0000000000000000000000000000000000087
:10B9C0000000000000000000000000000000000077
:10B9D0000000000000000000000000000000000067
:10B9E000000000000000000000000000000039E737
:10B9F0000000000000000000000000000000000047
:10BA0000000000000000FFFF000000000000000038
:10BA1000FFFF000000000000000000000000000028
:10BA20000000000000000000000000000000000016
:10BA30000000000000000000000000000000000006
:10BA400000000000000000000000000000000000F6
:10BA500000000000000000000000000000000000E6
:10BA600000000000000000000000000000000000D6
:10BA700000000000000000000000000000000000C6
:10BA800000000000000000000000000000000000B6
:10BA900000000000000000000000000000000000A6
:10BAA0000000000000000000000000000000000096
:10BAB0000000000000000000000000000000000086
:10BAC0000000000000000000000000000000000076
:10BAD0000000000000000000000000000000000066
:10BAE0000000000000000000000000000000000056
:10BAF0000000000000000000000000000000000046
:10BB0000000000000000FFFF000000000000000037
:10BB1000FFFF000000000000000000000000000027
:10BB20000000000000000000000000000000000015
:10BB30000000000000000000000000000000000005
:10BB400000000000000000000000000000000000F5
:10BB500000000000000000000000000000000000E5
:10BB600000000000000000000000000000000000D5
:10BB700000000000000000000000000000000000C5
:10BB800000000000000000000000000000000000B5
:10BB900000000000000000000000000000000000A5
:10BBA0000000000000000000000000000000000095
:10BBB0000000000000000000000000000000000085
:10BBC0000000000000000000000000000000000075
:10BBD0000000000000000000000000000000000065
:10BBE0000000000000000000000000000000000055
:10BBF0000000000000000000000000000000000045
:10BC0000000000000000FFFF000000000000000036
:10BC1000FFFF000000000000000000000000000026
:10BC200000000000000000000000FFFFFFFFFFFF1A
:10BC3000FFFFFFFFFFFFFFFFFFFF0000000000000E
:10BC400000000000000000000000000000000000F4
:10BC50000000000000000000FFFFFFFFFFFFFFFFEC
:10BC6000FFFFFFFFFFFFFFFFFFFFFFFFFFFFFFFFE4
:10BC7000FFFFFFFFFFFF00000000000000000000CA
:10BC800000000000000000000000000000000000B4
:10BC900000000000000000000000000000000000A4
:10BCA0000000000000000000000000000000000094
:10BCB0000000000000000000000000000000000084
:10BCC0000000000000000000000000000000000074
:10BCD0000000000000000000000000000000000064
:10BCE0000000000000000000000000000000000054
:10BCF0000000000000000000000000000000000044
:10BD0000000000000000FFFF000000000000000035
:10BD1000FFFF000000000000000000000000000025
:10BD200000000000000000000000FFFFFFFFFFFF19
:10BD3000FFFFFFFFFFFFFFFFFFFF0000000000000D
:10BD400000000000000000000000000000000000F3
:10BD50000000000000000000FFFFFFFFFFFFFFFFEB
:10BD6000FFFFFFFFFFFFFFFFFFFFFFFFFFFFFFFFE3
:10BD7000FFFFFFFFFFFF00000000000000000000C9
:10BD800000000000000000000000000000000000B3
:10BD900000000000000000000000000000000000A3
:10BDA0000000000000000000000000000000000093
:10BDB0000000000000000000000000000000000083
:10BDC0000000000000000000000000000000000073
:10BDD0000000000000000000000000000000000063
